:100000000C942A000C9434000C9434000C943400AA
:100010000C9434000C9434000C9434000C94340090
:100020000C9434000C9434000C9434000C94340080
:100030000C9434000C9434000C9434000C94340070
:100040000C9434000C9434000C9434000C94340060
:100050000C94340011241FBECFE5D8E0DEBFCDBF25
:100060000E9436000C9471070C9400000E9440021C
:100070000E947D02FFCF69E470E080E090E00E9482
:100080004B0760E270E081E090E00E944B076CE477
:1000900070E082E090E00E944B076FE670E083E042
:1000A00090E00E944B0766E770E084E090E00E94D9
:1000B0004B0765E670E085E090E00E944B0760E248
:1000C00070E086E090E00E944B0769E570E087E011
:1000D00090E00E944B076FE670E088E090E00E949D
:1000E0004B0765E770E089E090E00E944B0767E40A
:1000F00070E08AE090E00E944B076FE670E08BE0D2
:1001000090E00E944B076FE670E08CE090E00E9468
:100110004B0764E670E08DE090E00E944B0760E2E0
:1001200070E08EE090E00E944B076AE470E08FE0A0
:1001300090E00E944B076FE670E080E190E00E9443
:100140004B0762E670E081E190E00E944B0769E4B2
:1001500070E082E190E00E944B0760E270E083E192
:1001600090E00E944B0767E770E084E190E00E9416
:100170004B0761E670E085E190E00E944B0764E781
:1001800070E086E190E00E944B0763E670E087E153
:1001900090E00E944B0768E670E088E190E00E94E2
:1001A0004B0760E270E089E190E00E944B0769E74D
:1001B00070E08AE190E00E944B076FE670E08BE10F
:1001C00090E00E944B0765E770E08CE190E00E94B0
:1001D0004B0764E570E08DE190E00E944B0768E614
:1001E00070E08EE190E00E944B0761E670E08FE1E5
:1001F00090E00E944B0764E770E080E290E00E948C
:100200004B0760E270E081E290E00E944B0769E6F4
:1002100070E082E290E00E944B0763E770E083E2C7
:1002200090E00E944B0760E270E084E290E00E9460
:100230004B0766E670E085E290E00E944B0761E6BE
:1002400070E086E290E00E944B076EE670E087E285
:1002500090E00E944B0764E770E088E290E00E9423
:100260004B0761E670E089E290E00E944B0763E78C
:1002700070E08AE290E00E944B0764E770E08BE256
:1002800090E00E944B0769E670E08CE290E00E94EB
:100290004B0763E670E08DE290E00E944B0769E453
:1002A00070E08EE290E00E944B0760E270E08FE227
:1002B00090E00E944B0767E770E080E390E00E94C7
:1002C0004B0769E670E081E390E00E944B0763E72B
:1002D00070E082E390E00E944B0768E670E083E301
:1002E00090E00E944B0760E270E084E390E00E949F
:1002F0004B0769E770E085E390E00E944B076FE6EB
:1003000070E086E390E00E944B0765E770E087E3CA
:1003100090E00E944B0760E270E088E390E00E946A
:100320004B0767E670E089E390E00E944B076FE6B9
:1003300070E08AE390E00E944B076FE670E08BE389
:1003400090E00E944B0764E670E08CE390E00E942E
:100350004B0760E270E08DE390E00E944B076CE693
:1003600070E08EE390E00E944B0769E670E08FE357
:1003700090E00E944B0766E670E080E490E00E9407
:100380004B0765E670E081E490E00E944B0769E46A
:1003900070E082E490E00E944B0760E270E083E44A
:1003A00090E00E944B0762E770E084E490E00E94D6
:1003B0004B0765E670E085E490E00E944B0761E63C
:1003C00070E086E490E00E944B076CE670E087E402
:1003D00090E00E944B076CE670E088E490E00E9499
:1003E0004B0769E770E089E490E00E944B0760E208
:1003F00070E08AE490E00E944B076CE670E08BE4CA
:1004000090E00E944B076FE670E08CE490E00E9461
:100410004B0766E770E08DE490E00E944B0765E6CD
:1004200070E08EE490E00E944B0760E270E08FE4A1
:1004300090E00E944B0769E770E080E590E00E9441
:100440004B076FE670E081E590E00E944B0765E79F
:1004500070E082E590E00E944B0769E570E083E57B
:1004600090E00E944B076FE670E084E590E00E9408
:100470004B0765E770E085E590E00E944B07089523
:1004800040E060E080E00E945F0640E061E080E0E4
:100490000E945F0640E062E080E00E945F0640E06C
:1004A00063E080E00E945F0640E064E080E00E943C
:1004B0005F0641E064E082E00E945F0641E065E0A3
:1004C00082E00E945F0641E066E082E00E945F06F3
:1004D00041E067E082E00E945F0641E061E081E088
:1004E0000E945F0641E062E081E00E945F0641E019
:1004F00063E081E00E945F060895CF93DF93CDB75C
:10050000DEB7A7970FB6F894DEBF0FBECDBF0E942F
:100510003B000E942D060E942A05BE016F5F7F4F9F
:1005200080E00E94460629813A81A8E8B3E10E9452
:1005300062076B017C010B2EBAE0F694E794D79426
:10054000C794BA95D1F7B02D8601BE016D5F7F4F7C
:1005500081E00E9446062B813C81A8E8B3E10E941D
:1005600062074B015C01072E7AE0B694A79497943A
:1005700087947A95D1F7702D1401BE016B5F7F4F80
:1005800082E00E9446062D813E81A8E8B3E10E94E8
:1005900062072B013C01032E3AE07694679457944E
:1005A00047943A95D1F7302D5DA24CA2BE01695F08
:1005B0007F4F83E00E9446062F813885A8E8B3E18B
:1005C0000E9462079B01AC01012E1AE056954795E7
:1005D000379527951A95D1F7102D28A339A34AA34B
:1005E0005BA348A159A15FA34EA3BE01675F7F4FE4
:1005F00084E00E94460629853A85A8E8B3E10E9476
:100600006207AB01BC01032E3AE0769567955795DA
:1006100047953A95D1F7302D9A0181E7C81682E0C7
:10062000D806B8F591E7891692E0990690F58CA165
:100630009DA18137924068F58EA19FA1813792409C
:1006400040F5413782E0580720F59FEFE3ED20E3C6
:100650009150E0402040E1F700C000000E942006D9
:100660001F8EF12C0EC00F2D10E0C8018E960E9437
:100670005807EBE0F0E0EC0FFD1FE00FF11F808367
:10068000F39433E13F1578F7CE010B960E94B10544
:1006900044CF013782E01807C8F591E7291692E0A8
:1006A0003906A0F5C20186539C408235974070F50B
:1006B00088A199A186539C408235974038F521370F
:1006C00082E0380718F59FEFE3ED20E39150E0401A
:1006D0002040E1F700C000000E9420061D8AF12C96
:1006E0000DC00F2D10E0C8010E945807EBE0F0E0AC
:1006F000EC0FFD1FE00FF11F8083F39439E03F15ED
:1007000080F7CE010B960E94B10507CF86E3C81A89
:100710008CE0D80A92E5C91697E0D906D0F5E1E752
:100720002E16E2E03E06A8F5C20186539C408235B3
:10073000974078F588A199A186539C4082359740CF
:1007400040F5213782E0380720F59FEFE3ED20E305
:100750009150E0402040E1F700C000000E942006D8
:100760001C8EF12C0EC00F2D10E0C8014D960E947A
:100770005807EBE0F0E0EC0FFD1FE00FF11F808366
:10078000F39430E13F1578F7CE010B960E94B10546
:10079000C4CE013782E01807C8F591E7291692E028
:1007A0003906A0F58CA19DA18137924078F588A1EA
:1007B00099A186539C408235974040F521373240BD
:1007C00028F59FEFE3ED20E39150E0402040E1F772
:1007D00000C000000E9420061C8EF12C0FC00F2DBF
:1007E00010E0C8018E5B9F4F0E945807EBE0F0E0DD
:1007F000EC0FFD1FE00FF11F8083F39430E13F15F4
:1008000070F7CE010B960E94B10587CE82E5C8161F
:1008100087E0D806F0F5C401865694408F3C974097
:10082000C0F5C20186539C408235974090F588A15F
:1008300099A186539C408235974058F5CA0186534A
:100840009C408235974028F52FEF33ED40E321504F
:1008500030404040E1F700C000000E9420061E86A4
:10086000F12C0FC00F2D10E0C8018D5A9F4F0E9430
:100870005807EBE0F0E0EC0FFD1FE00FF11F808365
:10088000F39452E05F1570F7CE010B960E94B1050C
:1008900044CE01371240E8F5C40186539C408235AE
:1008A0009740B8F5C20186539C408235974088F541
:1008B00088A199A186539C408235974050F5CA0182
:1008C00086539C408235974020F52FEF33ED40E36F
:1008D000215030404040E1F700C000000E94200657
:1008E0001B8AF12C0EC00F2D10E0C8010A960E9441
:1008F0005807EBE0F0E0EC0FFD1FE00FF11F8083E5
:10090000F39457E05F1578F7CE010B960E94B1057E
:1009100004CE82E5C81687E0D80608F0FECD96E63C
:10092000891A94E0990AEFEC8E16E7E09E0608F02B
:10093000F4CD26E6421A24E0520A3FEC431637E093
:10094000530608F0EACD88A199A186539C408235D0
:10095000974008F0E2CD46535C404235574008F0DE
:10096000DCCD3FEF43ED50E3315040405040E1F7E4
:1009700000C000000E9420061E8AF12C0EC00F2D20
:1009800010E0C80142960E945807EBE0F0E0EC0F3F
:10099000FD1FE00FF11F8083F3948AE08F1578F735
:1009A000CE010B960E94B105B8CDCF93C82F482F2A
:1009B000417064E082E00E94D506C1FB442740F903
:1009C00065E082E00E94D506C2FB442740F966E05C
:1009D00082E00E94D506C3FB442740F967E082E02D
:1009E0000E94D506CF910895CF93C82F40E061E0D3
:1009F00081E00E94D50640E062E081E00E94D506D9
:100A00008C2F82958F700E94D50441E063E081E0D5
:100A10000E94D5068FE99FE00197F1F700C0000022
:100A200040E063E081E00E94D5068C2F0E94D5044F
:100A300041E063E081E00E94D5068FE99FE00197E5
:100A4000F1F700C0000040E063E081E00E94D506BD
:100A5000CF9108952FE785EB91E0215080409040A1
:100A6000E1F700C0000040E061E081E00E94D506AF
:100A700040E062E081E00E94D50682E00E94D50459
:100A800041E063E081E00E94D5068FE99FE0019795
:100A9000F1F700C0000040E063E081E00E94D5066D
:100AA00088E20E94F40490EE9A95F1F78FE00E949C
:100AB000F40420EE2A95F1F781E00E94F4048FEF10
:100AC00098E10197F1F700C0000086E00E94F4046D
:100AD0000895CF93C82F41E061E081E00E94D506E0
:100AE00040E062E081E00E94D5068C2F82958F70F5
:100AF0000E94D50441E063E081E00E94D5068FE9C1
:100B00009FE00197F1F700C0000040E063E081E062
:100B10000E94D5068C2F0E94D50441E063E081E05D
:100B20000E94D5068FE99FE00197F1F700C0000011
:100B300040E063E081E00E94D506CF9108958130C6
:100B400039F4603168F480E8860F0E94F404089557
:100B5000823031F4603120F480EC860F0E94F4047E
:100B60000895EF92FF920F931F93CF93DF93EC01C1
:100B700091E080E002C09F5F8F5FFE01E80FF11DF2
:100B800020812111F8CF923148F42CC0FE01E10FF1
:100B9000F11D8081803231F0115001C010E111113E
:100BA000F5CF1FEF00E016C0402F50E0212F30E0BE
:100BB0002F5F3F4F4217530751F460E082E00E94DD
:100BC0009F05F70180810E9469050F5F03C00E94A5
:100BD00069050F5F7E01E00EF11CF7018081811134
:100BE000E3CF27C08889803291F010E01CC011311A
:100BF00050F460E082E00E949F05F70180810E942E
:100C000069051F5F05C00E9469051F5F01C010E0F4
:100C10007E01E10EF11CF70180818111E8CF09C04E
:100C20000E9469051F5FFE01E10FF11D80818111A6
:100C3000F7CFDF91CF911F910F91FF90EF90089523
:100C400081E00E94F4048FE39FE10197F1F700C077
:100C5000000080E80E94F404089587B1806487B999
:100C600087B18F7787B987B18F7D87B986B18F7D3F
:100C700086B986B1806886B986B1816086B986B149
:100C8000826086B986B1846086B908958032B0F4F6
:100C90006115710599F097B1907E97B997B1892B3D
:100CA00087B986B1806486B9349BFECF86B18061F6
:100CB00086B984B195B1FB01918380830895843016
:100CC00008F072C0683008F06FC0423008F06CC0A5
:100CD000813001F130F08230B1F1833009F44CC041
:100CE0000895413059F42AB381E090E002C0880FA2
:100CF000991F6A95E2F7822B8ABB08952AB381E097
:100D000090E002C0880F991F6A95E2F780958223D0
:100D10008ABB0895413059F427B381E090E002C0C6
:100D2000880F991F6A95E2F7822B87BB089527B336
:100D300081E090E002C0880F991F6A95E2F78095E4
:100D4000822387BB0895413059F424B381E090E0B9
:100D500002C0880F991F6A95E2F7822B84BB089521
:100D600024B381E090E002C0880F991F6A95E2F7F2
:100D70008095822384BB0895413059F421B381E0EA
:100D800090E002C0880F991F6A95E2F7822B81BB21
:100D9000089521B381E090E002C0880F991F6A9501
:100DA000E2F78095822381BB0895843008F072C0F9
:100DB000683008F06FC0423008F06CC0813001F13B
:100DC00030F08230B1F1833009F44CC008954130E5
:100DD00059F42BB381E090E002C0880F991F6A9507
:100DE000E2F7822B8BBB08952BB381E090E002C029
:100DF000880F991F6A95E2F7809582238BBB08952F
:100E0000413059F428B381E090E002C0880F991F67
:100E10006A95E2F7822B88BB089528B381E090E0C1
:100E200002C0880F991F6A95E2F78095822388BBDC
:100E30000895413059F425B381E090E002C0880F55
:100E4000991F6A95E2F7822B85BB089525B381E04F
:100E500090E002C0880F991F6A95E2F7809582237F
:100E600085BB0895413059F422B381E090E002C07F
:100E7000880F991F6A95E2F7822B82BB089522B3EF
:100E800081E090E002C0880F991F6A95E2F7809593
:100E9000822382BB0895E199FECF90E09FBB8EBB79
:100EA0006DBB8CB384608CBB8CB382608CBB0895AB
:100EB000E199FECF90E09FBB8EBB8CB381608CBB71
:100EC0008DB30895A29FB001B39FC001A39F700D81
:100ED000811D1124911DB29F700D811D1124911D42
:060EE0000895F894FFCF15
:00000001FF
